{
  "contractName": "FaucetToken",
  "abi": [
    {
      "inputs": [],
      "stateMutability": "nonpayable",
      "type": "constructor"
    },
    {
      "anonymous": false,
      "inputs": [
        {
          "indexed": true,
          "internalType": "address",
          "name": "owner",
          "type": "address"
        },
        {
          "indexed": true,
          "internalType": "address",
          "name": "spender",
          "type": "address"
        },
        {
          "indexed": false,
          "internalType": "uint256",
          "name": "value",
          "type": "uint256"
        }
      ],
      "name": "Approval",
      "type": "event"
    },
    {
      "anonymous": false,
      "inputs": [
        {
          "indexed": true,
          "internalType": "address",
          "name": "previousOwner",
          "type": "address"
        },
        {
          "indexed": true,
          "internalType": "address",
          "name": "newOwner",
          "type": "address"
        }
      ],
      "name": "OwnershipTransferred",
      "type": "event"
    },
    {
      "anonymous": false,
      "inputs": [
        {
          "indexed": true,
          "internalType": "address",
          "name": "from",
          "type": "address"
        },
        {
          "indexed": true,
          "internalType": "address",
          "name": "to",
          "type": "address"
        },
        {
          "indexed": false,
          "internalType": "uint256",
          "name": "value",
          "type": "uint256"
        }
      ],
      "name": "Transfer",
      "type": "event"
    },
    {
      "inputs": [
        {
          "internalType": "address",
          "name": "owner",
          "type": "address"
        },
        {
          "internalType": "address",
          "name": "spender",
          "type": "address"
        }
      ],
      "name": "allowance",
      "outputs": [
        {
          "internalType": "uint256",
          "name": "",
          "type": "uint256"
        }
      ],
      "stateMutability": "view",
      "type": "function",
      "constant": true
    },
    {
      "inputs": [
        {
          "internalType": "address",
          "name": "spender",
          "type": "address"
        },
        {
          "internalType": "uint256",
          "name": "amount",
          "type": "uint256"
        }
      ],
      "name": "approve",
      "outputs": [
        {
          "internalType": "bool",
          "name": "",
          "type": "bool"
        }
      ],
      "stateMutability": "nonpayable",
      "type": "function"
    },
    {
      "inputs": [
        {
          "internalType": "address",
          "name": "account",
          "type": "address"
        }
      ],
      "name": "balanceOf",
      "outputs": [
        {
          "internalType": "uint256",
          "name": "",
          "type": "uint256"
        }
      ],
      "stateMutability": "view",
      "type": "function",
      "constant": true
    },
    {
      "inputs": [
        {
          "internalType": "uint256",
          "name": "amount",
          "type": "uint256"
        }
      ],
      "name": "burn",
      "outputs": [],
      "stateMutability": "nonpayable",
      "type": "function"
    },
    {
      "inputs": [
        {
          "internalType": "address",
          "name": "account",
          "type": "address"
        },
        {
          "internalType": "uint256",
          "name": "amount",
          "type": "uint256"
        }
      ],
      "name": "burnFrom",
      "outputs": [],
      "stateMutability": "nonpayable",
      "type": "function"
    },
    {
      "inputs": [],
      "name": "dailyAmount",
      "outputs": [
        {
          "internalType": "uint256",
          "name": "",
          "type": "uint256"
        }
      ],
      "stateMutability": "view",
      "type": "function",
      "constant": true
    },
    {
      "inputs": [],
      "name": "dailyLimit",
      "outputs": [
        {
          "internalType": "uint256",
          "name": "",
          "type": "uint256"
        }
      ],
      "stateMutability": "view",
      "type": "function",
      "constant": true
    },
    {
      "inputs": [],
      "name": "dailyTime",
      "outputs": [
        {
          "internalType": "uint256",
          "name": "",
          "type": "uint256"
        }
      ],
      "stateMutability": "view",
      "type": "function",
      "constant": true
    },
    {
      "inputs": [],
      "name": "decimals",
      "outputs": [
        {
          "internalType": "uint8",
          "name": "",
          "type": "uint8"
        }
      ],
      "stateMutability": "view",
      "type": "function",
      "constant": true
    },
    {
      "inputs": [
        {
          "internalType": "address",
          "name": "spender",
          "type": "address"
        },
        {
          "internalType": "uint256",
          "name": "subtractedValue",
          "type": "uint256"
        }
      ],
      "name": "decreaseAllowance",
      "outputs": [
        {
          "internalType": "bool",
          "name": "",
          "type": "bool"
        }
      ],
      "stateMutability": "nonpayable",
      "type": "function"
    },
    {
      "inputs": [
        {
          "internalType": "address",
          "name": "",
          "type": "address"
        }
      ],
      "name": "globalAmount",
      "outputs": [
        {
          "internalType": "uint256",
          "name": "",
          "type": "uint256"
        }
      ],
      "stateMutability": "view",
      "type": "function",
      "constant": true
    },
    {
      "inputs": [],
      "name": "globalLimit",
      "outputs": [
        {
          "internalType": "uint256",
          "name": "",
          "type": "uint256"
        }
      ],
      "stateMutability": "view",
      "type": "function",
      "constant": true
    },
    {
      "inputs": [
        {
          "internalType": "address",
          "name": "spender",
          "type": "address"
        },
        {
          "internalType": "uint256",
          "name": "addedValue",
          "type": "uint256"
        }
      ],
      "name": "increaseAllowance",
      "outputs": [
        {
          "internalType": "bool",
          "name": "",
          "type": "bool"
        }
      ],
      "stateMutability": "nonpayable",
      "type": "function"
    },
    {
      "inputs": [],
      "name": "name",
      "outputs": [
        {
          "internalType": "string",
          "name": "",
          "type": "string"
        }
      ],
      "stateMutability": "view",
      "type": "function",
      "constant": true
    },
    {
      "inputs": [],
      "name": "nextDayTimestamp",
      "outputs": [
        {
          "internalType": "uint256",
          "name": "",
          "type": "uint256"
        }
      ],
      "stateMutability": "view",
      "type": "function",
      "constant": true
    },
    {
      "inputs": [],
      "name": "owner",
      "outputs": [
        {
          "internalType": "address",
          "name": "",
          "type": "address"
        }
      ],
      "stateMutability": "view",
      "type": "function",
      "constant": true
    },
    {
      "inputs": [],
      "name": "renounceOwnership",
      "outputs": [],
      "stateMutability": "nonpayable",
      "type": "function"
    },
    {
      "inputs": [],
      "name": "symbol",
      "outputs": [
        {
          "internalType": "string",
          "name": "",
          "type": "string"
        }
      ],
      "stateMutability": "view",
      "type": "function",
      "constant": true
    },
    {
      "inputs": [],
      "name": "totalSupply",
      "outputs": [
        {
          "internalType": "uint256",
          "name": "",
          "type": "uint256"
        }
      ],
      "stateMutability": "view",
      "type": "function",
      "constant": true
    },
    {
      "inputs": [
        {
          "internalType": "address",
          "name": "recipient",
          "type": "address"
        },
        {
          "internalType": "uint256",
          "name": "amount",
          "type": "uint256"
        }
      ],
      "name": "transfer",
      "outputs": [
        {
          "internalType": "bool",
          "name": "",
          "type": "bool"
        }
      ],
      "stateMutability": "nonpayable",
      "type": "function"
    },
    {
      "inputs": [
        {
          "internalType": "address",
          "name": "sender",
          "type": "address"
        },
        {
          "internalType": "address",
          "name": "recipient",
          "type": "address"
        },
        {
          "internalType": "uint256",
          "name": "amount",
          "type": "uint256"
        }
      ],
      "name": "transferFrom",
      "outputs": [
        {
          "internalType": "bool",
          "name": "",
          "type": "bool"
        }
      ],
      "stateMutability": "nonpayable",
      "type": "function"
    },
    {
      "inputs": [
        {
          "internalType": "address",
          "name": "newOwner",
          "type": "address"
        }
      ],
      "name": "transferOwnership",
      "outputs": [],
      "stateMutability": "nonpayable",
      "type": "function"
    },
    {
      "inputs": [
        {
          "internalType": "address",
          "name": "recipient",
          "type": "address"
        },
        {
          "internalType": "uint256",
          "name": "amount",
          "type": "uint256"
        }
      ],
      "name": "mint",
      "outputs": [
        {
          "internalType": "bool",
          "name": "",
          "type": "bool"
        }
      ],
      "stateMutability": "nonpayable",
      "type": "function"
    },
    {
      "inputs": [
        {
          "internalType": "address",
          "name": "recipient",
          "type": "address"
        },
        {
          "internalType": "uint256",
          "name": "amount",
          "type": "uint256"
        }
      ],
      "name": "getFaucet",
      "outputs": [],
      "stateMutability": "nonpayable",
      "type": "function"
    },
    {
      "inputs": [],
      "name": "getDailyRemainingAmount",
      "outputs": [
        {
          "internalType": "uint256",
          "name": "",
          "type": "uint256"
        }
      ],
      "stateMutability": "view",
      "type": "function",
      "constant": true
    }
  ],
  "bytecode": "0x608060405260006007553480156200001657600080fd5b50604080518082018252600c81526b2330bab1b2ba102a37b5b2b760a11b60208083019182528351808501909452600684526511985d58d95d60d21b908401528151919291620000699160039162000121565b5080516200007f90600490602084019062000121565b5050506000620000946200010860201b60201c565b600580546001600160a01b0319166001600160a01b038316908117909155604051919250906000907f8be0079c531659141344cd1fd0a4f28419497f9722a3daafe3b4186f6b6457e0908290a350620000ff62015180426200010c60201b620009ed1790919060201c565b60065562000229565b3390565b60006200011a8284620001c7565b9392505050565b8280546200012f90620001ec565b90600052602060002090601f0160209004810192826200015357600085556200019e565b82601f106200016e57805160ff19168380011785556200019e565b828001600101855582156200019e579182015b828111156200019e57825182559160200191906001019062000181565b50620001ac929150620001b0565b5090565b5b80821115620001ac5760008155600101620001b1565b60008219821115620001e757634e487b7160e01b81526011600452602481fd5b500190565b6002810460018216806200020157607f821691505b602082108114156200022357634e487b7160e01b600052602260045260246000fd5b50919050565b61151780620002396000396000f3fe608060405234801561001057600080fd5b50600436106101a35760003560e01c806370a08231116100ee5780639d5710d111610097578063b1aad50b11610071578063b1aad50b1461030a578063d1f3a89d1461031d578063dd62ed3e14610325578063f2fde38b14610338576101a3565b80639d5710d1146102dc578063a457c2d7146102e4578063a9059cbb146102f7576101a3565b80638da5cb5b116100c85780638da5cb5b146102ac5780639088bded146102c157806395d89b41146102d4576101a3565b806370a082311461027e578063715018a61461029157806379cc679014610299576101a3565b806339509351116101505780634b45b97d1161012a5780634b45b97d1461026657806359c1334b1461026e57806367eeba0c14610276576101a3565b8063395093511461022b57806340c10f191461023e57806342966c6814610251576101a3565b806318160ddd1161018157806318160ddd146101fb57806323b872dd14610203578063313ce56714610216576101a3565b806306fdde03146101a8578063095ea7b3146101c6578063095ebed4146101e6575b600080fd5b6101b061034b565b6040516101bd9190610e9b565b60405180910390f35b6101d96101d4366004610e3b565b6103de565b6040516101bd9190610e90565b6101ee6103fb565b6040516101bd919061144a565b6101ee610401565b6101d9610211366004610e00565b610407565b61021e6104a7565b6040516101bd9190611453565b6101d9610239366004610e3b565b6104ac565b6101d961024c366004610e3b565b6104fb565b61026461025f366004610e64565b61056a565b005b6101ee61057e565b6101ee610585565b6101ee61058b565b6101ee61028c366004610db4565b610594565b6102646105b3565b6102646102a7366004610e3b565b610649565b6102b461069e565b6040516101bd9190610e7c565b6101ee6102cf366004610db4565b6106ad565b6101b06106bf565b6101ee6106ce565b6101d96102f2366004610e3b565b6106d7565b6101d9610305366004610e3b565b610752565b610264610318366004610e3b565b610766565b6101ee6108c4565b6101ee610333366004610dce565b6108f4565b610264610346366004610db4565b61091f565b60606003805461035a90611490565b80601f016020809104026020016040519081016040528092919081815260200182805461038690611490565b80156103d35780601f106103a8576101008083540402835291602001916103d3565b820191906000526020600020905b8154815290600101906020018083116103b657829003601f168201915b505050505090505b90565b60006103f26103eb610a00565b8484610a04565b50600192915050565b60065481565b60025490565b6000610414848484610ab8565b6001600160a01b038416600090815260016020526040812081610435610a00565b6001600160a01b03166001600160a01b03168152602001908152602001600020549050828110156104815760405162461bcd60e51b8152600401610478906111b0565b60405180910390fd5b61049c8561048d610a00565b6104978685611479565b610a04565b506001949350505050565b600590565b60006103f26104b9610a00565b8484600160006104c7610a00565b6001600160a01b03908116825260208083019390935260409182016000908120918b16815292529020546104979190611461565b6000610505610a00565b6001600160a01b031661051661069e565b6001600160a01b03161461053c5760405162461bcd60e51b81526004016104789061120d565b600061054784610594565b90506105538484610be0565b600061055e85610594565b91909111949350505050565b61057b610575610a00565b82610ca0565b50565b6201518081565b60075481565b6402540be40081565b6001600160a01b0381166000908152602081905260409020545b919050565b6105bb610a00565b6001600160a01b03166105cc61069e565b6001600160a01b0316146105f25760405162461bcd60e51b81526004016104789061120d565b6005546040516000916001600160a01b0316907f8be0079c531659141344cd1fd0a4f28419497f9722a3daafe3b4186f6b6457e0908390a36005805473ffffffffffffffffffffffffffffffffffffffff19169055565b600061065783610333610a00565b9050818110156106795760405162461bcd60e51b815260040161047890611242565b61068f83610685610a00565b6104978585611479565b6106998383610ca0565b505050565b6005546001600160a01b031690565b60086020526000908152604090205481565b60606004805461035a90611490565b64e8d4a5100081565b600080600160006106e6610a00565b6001600160a01b03908116825260208083019390935260409182016000908120918816815292529020549050828110156107325760405162461bcd60e51b8152600401610478906113b6565b61074861073d610a00565b856104978685611479565b5060019392505050565b60006103f261075f610a00565b8484610ab8565b61076e610a00565b6001600160a01b031661077f61069e565b6001600160a01b0316146107a55760405162461bcd60e51b81526004016104789061120d565b6305f5e1008111156107c95760405162461bcd60e51b815260040161047890611153565b6001600160a01b03821660009081526008602052604090205464e8d4a51000906107f390836109ed565b11156108115760405162461bcd60e51b8152600401610478906110bf565b60065442111561083457600060075560065461083090620151806109ed565b6006555b6007546402540be4009061084890836109ed565b11156108665760405162461bcd60e51b81526004016104789061111c565b61087082826104fb565b5060075461087e90826109ed565b6007556001600160a01b0382166000908152600860205260409020546108a490826109ed565b6001600160a01b0390921660009081526008602052604090209190915550565b60006006544211156108dc57506402540be4006103db565b6007546108ef906402540be40090610d86565b905090565b6001600160a01b03918216600090815260016020908152604080832093909416825291909152205490565b610927610a00565b6001600160a01b031661093861069e565b6001600160a01b03161461095e5760405162461bcd60e51b81526004016104789061120d565b6001600160a01b0381166109845760405162461bcd60e51b815260040161047890610fa8565b6005546040516001600160a01b038084169216907f8be0079c531659141344cd1fd0a4f28419497f9722a3daafe3b4186f6b6457e090600090a36005805473ffffffffffffffffffffffffffffffffffffffff19166001600160a01b0392909216919091179055565b60006109f98284611461565b9392505050565b3390565b6001600160a01b038316610a2a5760405162461bcd60e51b815260040161047890611359565b6001600160a01b038216610a505760405162461bcd60e51b815260040161047890611005565b6001600160a01b0380841660008181526001602090815260408083209487168084529490915290819020849055517f8c5be1e5ebec7d5bd14f71427d1e84f3dd0314c0f7b2291e5b200ac8c7c3b92590610aab90859061144a565b60405180910390a3505050565b6001600160a01b038316610ade5760405162461bcd60e51b8152600401610478906112fc565b6001600160a01b038216610b045760405162461bcd60e51b815260040161047890610eee565b610b0f838383610d92565b6001600160a01b03831660009081526020819052604090205481811015610b485760405162461bcd60e51b815260040161047890611062565b610b528282611479565b6001600160a01b038086166000908152602081905260408082209390935590851681529081208054849290610b88908490611461565b92505081905550826001600160a01b0316846001600160a01b03167fddf252ad1be2c89b69c2b068fc378daa952ba7f163c4a11628f55a4df523b3ef84604051610bd2919061144a565b60405180910390a350505050565b6001600160a01b038216610c065760405162461bcd60e51b815260040161047890611413565b610c1260008383610d92565b8060026000828254610c249190611461565b90915550506001600160a01b03821660009081526020819052604081208054839290610c51908490611461565b90915550506040516001600160a01b038316906000907fddf252ad1be2c89b69c2b068fc378daa952ba7f163c4a11628f55a4df523b3ef90610c9490859061144a565b60405180910390a35050565b6001600160a01b038216610cc65760405162461bcd60e51b81526004016104789061129f565b610cd282600083610d92565b6001600160a01b03821660009081526020819052604090205481811015610d0b5760405162461bcd60e51b815260040161047890610f4b565b610d158282611479565b6001600160a01b03841660009081526020819052604081209190915560028054849290610d43908490611479565b90915550506040516000906001600160a01b038516907fddf252ad1be2c89b69c2b068fc378daa952ba7f163c4a11628f55a4df523b3ef90610aab90869061144a565b60006109f98284611479565b610699838383610699565b80356001600160a01b03811681146105ae57600080fd5b600060208284031215610dc5578081fd5b6109f982610d9d565b60008060408385031215610de0578081fd5b610de983610d9d565b9150610df760208401610d9d565b90509250929050565b600080600060608486031215610e14578081fd5b610e1d84610d9d565b9250610e2b60208501610d9d565b9150604084013590509250925092565b60008060408385031215610e4d578182fd5b610e5683610d9d565b946020939093013593505050565b600060208284031215610e75578081fd5b5035919050565b6001600160a01b0391909116815260200190565b901515815260200190565b6000602080835283518082850152825b81811015610ec757858101830151858201604001528201610eab565b81811115610ed85783604083870101525b50601f01601f1916929092016040019392505050565b60208082526023908201527f45524332303a207472616e7366657220746f20746865207a65726f206164647260408201527f6573730000000000000000000000000000000000000000000000000000000000606082015260800190565b60208082526022908201527f45524332303a206275726e20616d6f756e7420657863656564732062616c616e60408201527f6365000000000000000000000000000000000000000000000000000000000000606082015260800190565b60208082526026908201527f4f776e61626c653a206e6577206f776e657220697320746865207a65726f206160408201527f6464726573730000000000000000000000000000000000000000000000000000606082015260800190565b60208082526022908201527f45524332303a20617070726f766520746f20746865207a65726f20616464726560408201527f7373000000000000000000000000000000000000000000000000000000000000606082015260800190565b60208082526026908201527f45524332303a207472616e7366657220616d6f756e742065786365656473206260408201527f616c616e63650000000000000000000000000000000000000000000000000000606082015260800190565b6020808252602c908201527f466175636574546f6b656e3a2065786365656420676c6f62616c206c696d697460408201527f2070657220616464726573730000000000000000000000000000000000000000606082015260800190565b6020808252601f908201527f466175636574546f6b656e3a20657863656564206461696c79206c696d697400604082015260600190565b60208082526034908201527f466175636574546f6b656e3a2063616e6e6f7420676574206d6f72652074686160408201527f6e2031303020746f6b656e73206174206f6e6365000000000000000000000000606082015260800190565b60208082526028908201527f45524332303a207472616e7366657220616d6f756e742065786365656473206160408201527f6c6c6f77616e6365000000000000000000000000000000000000000000000000606082015260800190565b6020808252818101527f4f776e61626c653a2063616c6c6572206973206e6f7420746865206f776e6572604082015260600190565b60208082526024908201527f45524332303a206275726e20616d6f756e74206578636565647320616c6c6f7760408201527f616e636500000000000000000000000000000000000000000000000000000000606082015260800190565b60208082526021908201527f45524332303a206275726e2066726f6d20746865207a65726f2061646472657360408201527f7300000000000000000000000000000000000000000000000000000000000000606082015260800190565b60208082526025908201527f45524332303a207472616e736665722066726f6d20746865207a65726f20616460408201527f6472657373000000000000000000000000000000000000000000000000000000606082015260800190565b60208082526024908201527f45524332303a20617070726f76652066726f6d20746865207a65726f2061646460408201527f7265737300000000000000000000000000000000000000000000000000000000606082015260800190565b60208082526025908201527f45524332303a2064656372656173656420616c6c6f77616e63652062656c6f7760408201527f207a65726f000000000000000000000000000000000000000000000000000000606082015260800190565b6020808252601f908201527f45524332303a206d696e7420746f20746865207a65726f206164647265737300604082015260600190565b90815260200190565b60ff91909116815260200190565b60008219821115611474576114746114cb565b500190565b60008282101561148b5761148b6114cb565b500390565b6002810460018216806114a457607f821691505b602082108114156114c557634e487b7160e01b600052602260045260246000fd5b50919050565b634e487b7160e01b600052601160045260246000fdfea26469706673582212209508dac60ed1dda92944f5292c7db0c9723fe23705bff78a56b2241ce36a8e8c64736f6c63430008000033",
  "immutableReferences": {},
  "source": "// SPDX-License-Identifier: MIT\r\n\r\npragma solidity ^0.8.0;\r\n\r\nimport \"@openzeppelin/contracts/utils/math/SafeMath.sol\";\r\nimport \"@openzeppelin/contracts/token/ERC20/ERC20.sol\";\r\nimport \"@openzeppelin/contracts/token/ERC20/extensions/ERC20Burnable.sol\";\r\nimport \"@openzeppelin/contracts/access/Ownable.sol\";\r\n\r\ncontract FaucetToken is ERC20Burnable, Ownable {\r\n\r\n    using SafeMath for uint256;\r\n\r\n    uint256 public constant globalLimit = 10000000 * 10 ** 5;   // global limit per address\r\n    uint256 public constant dailyLimit = 100000 * 10 ** 5;      // daily limit per day\r\n    uint256 public constant dailyTime = 86400;  // 24 hours = 86400 seconds\r\n    uint256 public nextDayTimestamp;\r\n    uint256 public dailyAmount = 0;\r\n\r\n    mapping(address => uint256) public globalAmount;\r\n\r\n    constructor() ERC20(\"Faucet Token\", \"Faucet\") {\r\n        nextDayTimestamp = block.timestamp.add(dailyTime);\r\n    }\r\n\r\n    function mint(address recipient, uint256 amount) public onlyOwner returns (bool) {\r\n        uint256 balanceBefore = balanceOf(recipient);\r\n        _mint(recipient, amount);\r\n        uint256 balanceAfter = balanceOf(recipient);\r\n        return balanceAfter > balanceBefore;\r\n    }\r\n\r\n    function getFaucet(address recipient, uint256 amount) external onlyOwner {\r\n        require(amount <= 1000 * 10 ** 5, \"FaucetToken: cannot get more than 100 tokens at once\");\r\n        require(globalAmount[recipient].add(amount) <= globalLimit, \"FaucetToken: exceed global limit per address\");\r\n\r\n        if(block.timestamp > nextDayTimestamp){\r\n            dailyAmount = 0;\r\n            nextDayTimestamp = nextDayTimestamp.add(dailyTime);\r\n        }\r\n\r\n        require(dailyAmount.add(amount) <= dailyLimit, \"FaucetToken: exceed daily limit\");\r\n        mint(recipient, amount);\r\n        dailyAmount = dailyAmount.add(amount);\r\n        globalAmount[recipient] = globalAmount[recipient].add(amount);\r\n    }\r\n\r\n    function _beforeTokenTransfer(address from, address to, uint256 amount) internal virtual override(ERC20) {\r\n        super._beforeTokenTransfer(from, to, amount);\r\n    }\r\n\r\n    function getDailyRemainingAmount() external view returns(uint256) {\r\n        if(block.timestamp > nextDayTimestamp) return dailyLimit;\r\n        return dailyLimit.sub(dailyAmount);\r\n    }\r\n}\r\n",
  "sourcePath": "E:/blockchain/UK/contract/contracts/FaucetToken.sol",
  "compiler": {
    "name": "solc",
    "version": "0.8.0+commit.c7dfd78e.Emscripten.clang"
  },
  "schemaVersion": "3.3.3",
  "updatedAt": "2021-07-27T15:40:22.844Z",
  "networkType": "ethereum",
  "devdoc": {
    "kind": "dev",
    "methods": {
      "allowance(address,address)": {
        "details": "See {IERC20-allowance}."
      },
      "approve(address,uint256)": {
        "details": "See {IERC20-approve}. Requirements: - `spender` cannot be the zero address."
      },
      "balanceOf(address)": {
        "details": "See {IERC20-balanceOf}."
      },
      "burn(uint256)": {
        "details": "Destroys `amount` tokens from the caller. See {ERC20-_burn}."
      },
      "burnFrom(address,uint256)": {
        "details": "Destroys `amount` tokens from `account`, deducting from the caller's allowance. See {ERC20-_burn} and {ERC20-allowance}. Requirements: - the caller must have allowance for ``accounts``'s tokens of at least `amount`."
      },
      "decimals()": {
        "details": "Returns the number of decimals used to get its user representation. For example, if `decimals` equals `2`, a balance of `505` tokens should be displayed to a user as `5,05` (`505 / 10 ** 2`). Tokens usually opt for a value of 18, imitating the relationship between Ether and Wei. This is the value {ERC20} uses, unless this function is overridden; NOTE: This information is only used for _display_ purposes: it in no way affects any of the arithmetic of the contract, including {IERC20-balanceOf} and {IERC20-transfer}."
      },
      "decreaseAllowance(address,uint256)": {
        "details": "Atomically decreases the allowance granted to `spender` by the caller. This is an alternative to {approve} that can be used as a mitigation for problems described in {IERC20-approve}. Emits an {Approval} event indicating the updated allowance. Requirements: - `spender` cannot be the zero address. - `spender` must have allowance for the caller of at least `subtractedValue`."
      },
      "increaseAllowance(address,uint256)": {
        "details": "Atomically increases the allowance granted to `spender` by the caller. This is an alternative to {approve} that can be used as a mitigation for problems described in {IERC20-approve}. Emits an {Approval} event indicating the updated allowance. Requirements: - `spender` cannot be the zero address."
      },
      "name()": {
        "details": "Returns the name of the token."
      },
      "owner()": {
        "details": "Returns the address of the current owner."
      },
      "renounceOwnership()": {
        "details": "Leaves the contract without owner. It will not be possible to call `onlyOwner` functions anymore. Can only be called by the current owner. NOTE: Renouncing ownership will leave the contract without an owner, thereby removing any functionality that is only available to the owner."
      },
      "symbol()": {
        "details": "Returns the symbol of the token, usually a shorter version of the name."
      },
      "totalSupply()": {
        "details": "See {IERC20-totalSupply}."
      },
      "transfer(address,uint256)": {
        "details": "See {IERC20-transfer}. Requirements: - `recipient` cannot be the zero address. - the caller must have a balance of at least `amount`."
      },
      "transferFrom(address,address,uint256)": {
        "details": "See {IERC20-transferFrom}. Emits an {Approval} event indicating the updated allowance. This is not required by the EIP. See the note at the beginning of {ERC20}. Requirements: - `sender` and `recipient` cannot be the zero address. - `sender` must have a balance of at least `amount`. - the caller must have allowance for ``sender``'s tokens of at least `amount`."
      },
      "transferOwnership(address)": {
        "details": "Transfers ownership of the contract to a new account (`newOwner`). Can only be called by the current owner."
      }
    },
    "version": 1
  },
  "userdoc": {
    "kind": "user",
    "methods": {},
    "version": 1
  }
}