{
  "contractName": "MatrixStorage",
  "abi": [
    {
      "inputs": [],
      "stateMutability": "nonpayable",
      "type": "constructor"
    },
    {
      "inputs": [
        {
          "internalType": "string[][]",
          "name": "_data",
          "type": "string[][]"
        }
      ],
      "name": "uploadData",
      "outputs": [],
      "stateMutability": "nonpayable",
      "type": "function"
    },
    {
      "inputs": [],
      "name": "viewData",
      "outputs": [
        {
          "internalType": "string[][]",
          "name": "",
          "type": "string[][]"
        }
      ],
      "stateMutability": "view",
      "type": "function"
    }
  ],
  "bytecode": "0x608060405234801561001057600080fd5b506106c9806100206000396000f3fe608060405234801561001057600080fd5b50600436106100365760003560e01c80637ba097591461003b578063f2b8c49914610059575b600080fd5b61004361006e565b6040516100509190610511565b60405180910390f35b61006c610067366004610385565b61018e565b005b60606000805480602002602001604051908101604052809291908181526020016000905b8282101561018557838290600052602060002001805480602002602001604051908101604052809291908181526020016000905b828210156101725783829060005260206000200180546100e590610642565b80601f016020809104026020016040519081016040528092919081815260200182805461011190610642565b801561015e5780601f106101335761010080835404028352916020019161015e565b820191906000526020600020905b81548152906001019060200180831161014157829003601f168201915b5050505050815260200190600101906100c6565b5050505081526020019060010190610092565b50505050905090565b80516101a19060009060208401906101a5565b5050565b8280548282559060005260206000209081019282156101f2579160200282015b828111156101f257825180516101e2918491602090910190610202565b50916020019190600101906101c5565b506101fe92915061025b565b5090565b82805482825590600052602060002090810192821561024f579160200282015b8281111561024f578251805161023f918491602090910190610278565b5091602001919060010190610222565b506101fe9291506102f8565b808211156101fe57600061026f8282610315565b5060010161025b565b82805461028490610642565b90600052602060002090601f0160209004810192826102a657600085556102ec565b82601f106102bf57805160ff19168380011785556102ec565b828001600101855582156102ec579182015b828111156102ec5782518255916020019190600101906102d1565b506101fe929150610336565b808211156101fe57600061030c828261034b565b506001016102f8565b508054600082559060005260206000209081019061033391906102f8565b50565b5b808211156101fe5760008155600101610337565b50805461035790610642565b6000825580601f10610367575050565b601f0160209004906000526020600020908101906103339190610336565b600060208284031215610396578081fd5b67ffffffffffffffff80833511156103ac578182fd5b8235830184601f8201126103be578283fd5b6103d06103cb823561061e565b6105ed565b808235825260208201915060208301876020853560051b86010111156103f4578586fd5b855b843581101561050457858235111561040c578687fd5b8135850189603f82011261041e578788fd5b61042e6103cb602083013561061e565b602082810135808352908201919060408085019160051b8501018d1015610453578a8bfd5b8a5b60208501358110156104eb578a8235111561046e578b8cfd5b8d605f83358701011261047f578b8cfd5b60408235860101358b8111156104975761049761067d565b6104aa601f8201601f19166020016105ed565b8181528f60608386358a01010111156104c1578d8efd5b81606085358901016020830137602091810182018e90528552938401939190910190600101610455565b50508652505060209384019391909101906001016103f6565b5090979650505050505050565b6000602080830181845280855180835260408601915060408160051b8701019250838701855b828110156105e057878503603f19018452815180518087529087019087870190600581901b880189018a5b828110156105ca57601f19808b8403018552855180518085528e5b8181101561059b578e81840101518f82880101528e8101905061057d565b818111156105ab578f8f83880101525b50968d0196958d0195601f01909116929092018b019150600101610562565b5097505050938601935090850190600101610537565b5092979650505050505050565b604051601f8201601f1916810167ffffffffffffffff811182821017156106165761061661067d565b604052919050565b600067ffffffffffffffff8211156106385761063861067d565b5060051b60200190565b600181811c9082168061065657607f821691505b6020821081141561067757634e487b7160e01b600052602260045260246000fd5b50919050565b634e487b7160e01b600052604160045260246000fdfea2646970667358221220ff8f83eefbbc807eb64022c60afdfeaa57ed80f112d64964cd93bb5bf193a88c64736f6c63430008040033",
  "immutableReferences": {},
  "source": "pragma solidity ^0.8.4;\r\n\r\ncontract MatrixStorage {\r\n\r\n    string[][] private data;\r\n\r\n    constructor() public {}\r\n\r\n    function uploadData(string[][] memory _data) public {\r\n        data = _data;\r\n    }\r\n\r\n    function viewData() public view returns(string[][] memory) {\r\n        return data;\r\n    }\r\n}\r\n",
  "sourcePath": "E:/blockchain/UK/matrix-contract/contracts/MatrixStorage.sol",
  "compiler": {
    "name": "solc",
    "version": "0.8.4+commit.c7e474f2.Emscripten.clang"
  },
  "schemaVersion": "3.3.3",
  "updatedAt": "2021-06-11T17:49:38.184Z",
  "devdoc": {
    "kind": "dev",
    "methods": {},
    "version": 1
  },
  "userdoc": {
    "kind": "user",
    "methods": {},
    "version": 1
  }
}